{
    "contractName": "ERC20Contract",
    "abi": [
        {
            "inputs": [
                {
                    "internalType": "address",
                    "name": "initialOwner",
                    "type": "address"
                }
            ],
            "stateMutability": "nonpayable",
            "type": "constructor"
        },
        {
            "inputs": [],
            "name": "ECDSAInvalidSignature",
            "type": "error"
        },
        {
            "inputs": [
                {
                    "internalType": "uint256",
                    "name": "length",
                    "type": "uint256"
                }
            ],
            "name": "ECDSAInvalidSignatureLength",
            "type": "error"
        },
        {
            "inputs": [
                {
                    "internalType": "bytes32",
                    "name": "s",
                    "type": "bytes32"
                }
            ],
            "name": "ECDSAInvalidSignatureS",
            "type": "error"
        },
        {
            "inputs": [
                {
                    "internalType": "address",
                    "name": "spender",
                    "type": "address"
                },
                {
                    "internalType": "uint256",
                    "name": "allowance",
                    "type": "uint256"
                },
                {
                    "internalType": "uint256",
                    "name": "needed",
                    "type": "uint256"
                }
            ],
            "name": "ERC20InsufficientAllowance",
            "type": "error"
        },
        {
            "inputs": [
                {
                    "internalType": "address",
                    "name": "sender",
                    "type": "address"
                },
                {
                    "internalType": "uint256",
                    "name": "balance",
                    "type": "uint256"
                },
                {
                    "internalType": "uint256",
                    "name": "needed",
                    "type": "uint256"
                }
            ],
            "name": "ERC20InsufficientBalance",
            "type": "error"
        },
        {
            "inputs": [
                {
                    "internalType": "address",
                    "name": "approver",
                    "type": "address"
                }
            ],
            "name": "ERC20InvalidApprover",
            "type": "error"
        },
        {
            "inputs": [
                {
                    "internalType": "address",
                    "name": "receiver",
                    "type": "address"
                }
            ],
            "name": "ERC20InvalidReceiver",
            "type": "error"
        },
        {
            "inputs": [
                {
                    "internalType": "address",
                    "name": "sender",
                    "type": "address"
                }
            ],
            "name": "ERC20InvalidSender",
            "type": "error"
        },
        {
            "inputs": [
                {
                    "internalType": "address",
                    "name": "spender",
                    "type": "address"
                }
            ],
            "name": "ERC20InvalidSpender",
            "type": "error"
        },
        {
            "inputs": [
                {
                    "internalType": "uint256",
                    "name": "deadline",
                    "type": "uint256"
                }
            ],
            "name": "ERC2612ExpiredSignature",
            "type": "error"
        },
        {
            "inputs": [
                {
                    "internalType": "address",
                    "name": "signer",
                    "type": "address"
                },
                {
                    "internalType": "address",
                    "name": "owner",
                    "type": "address"
                }
            ],
            "name": "ERC2612InvalidSigner",
            "type": "error"
        },
        {
            "inputs": [
                {
                    "internalType": "uint256",
                    "name": "maxLoan",
                    "type": "uint256"
                }
            ],
            "name": "ERC3156ExceededMaxLoan",
            "type": "error"
        },
        {
            "inputs": [
                {
                    "internalType": "address",
                    "name": "receiver",
                    "type": "address"
                }
            ],
            "name": "ERC3156InvalidReceiver",
            "type": "error"
        },
        {
            "inputs": [
                {
                    "internalType": "address",
                    "name": "token",
                    "type": "address"
                }
            ],
            "name": "ERC3156UnsupportedToken",
            "type": "error"
        },
        {
            "inputs": [],
            "name": "EnforcedPause",
            "type": "error"
        },
        {
            "inputs": [],
            "name": "ExpectedPause",
            "type": "error"
        },
        {
            "inputs": [
                {
                    "internalType": "address",
                    "name": "account",
                    "type": "address"
                },
                {
                    "internalType": "uint256",
                    "name": "currentNonce",
                    "type": "uint256"
                }
            ],
            "name": "InvalidAccountNonce",
            "type": "error"
        },
        {
            "inputs": [],
            "name": "InvalidShortString",
            "type": "error"
        },
        {
            "inputs": [
                {
                    "internalType": "address",
                    "name": "owner",
                    "type": "address"
                }
            ],
            "name": "OwnableInvalidOwner",
            "type": "error"
        },
        {
            "inputs": [
                {
                    "internalType": "address",
                    "name": "account",
                    "type": "address"
                }
            ],
            "name": "OwnableUnauthorizedAccount",
            "type": "error"
        },
        {
            "inputs": [
                {
                    "internalType": "string",
                    "name": "str",
                    "type": "string"
                }
            ],
            "name": "StringTooLong",
            "type": "error"
        },
        {
            "anonymous": false,
            "inputs": [
                {
                    "indexed": true,
                    "internalType": "address",
                    "name": "owner",
                    "type": "address"
                },
                {
                    "indexed": true,
                    "internalType": "address",
                    "name": "spender",
                    "type": "address"
                },
                {
                    "indexed": false,
                    "internalType": "uint256",
                    "name": "value",
                    "type": "uint256"
                }
            ],
            "name": "Approval",
            "type": "event"
        },
        {
            "anonymous": false,
            "inputs": [],
            "name": "EIP712DomainChanged",
            "type": "event"
        },
        {
            "anonymous": false,
            "inputs": [
                {
                    "indexed": true,
                    "internalType": "address",
                    "name": "previousOwner",
                    "type": "address"
                },
                {
                    "indexed": true,
                    "internalType": "address",
                    "name": "newOwner",
                    "type": "address"
                }
            ],
            "name": "OwnershipTransferred",
            "type": "event"
        },
        {
            "anonymous": false,
            "inputs": [
                {
                    "indexed": false,
                    "internalType": "address",
                    "name": "account",
                    "type": "address"
                }
            ],
            "name": "Paused",
            "type": "event"
        },
        {
            "anonymous": false,
            "inputs": [
                {
                    "indexed": true,
                    "internalType": "address",
                    "name": "from",
                    "type": "address"
                },
                {
                    "indexed": true,
                    "internalType": "address",
                    "name": "to",
                    "type": "address"
                },
                {
                    "indexed": false,
                    "internalType": "uint256",
                    "name": "value",
                    "type": "uint256"
                }
            ],
            "name": "Transfer",
            "type": "event"
        },
        {
            "anonymous": false,
            "inputs": [
                {
                    "indexed": false,
                    "internalType": "address",
                    "name": "account",
                    "type": "address"
                }
            ],
            "name": "Unpaused",
            "type": "event"
        },
        {
            "inputs": [],
            "name": "DOMAIN_SEPARATOR",
            "outputs": [
                {
                    "internalType": "bytes32",
                    "name": "",
                    "type": "bytes32"
                }
            ],
            "stateMutability": "view",
            "type": "function"
        },
        {
            "inputs": [
                {
                    "internalType": "address",
                    "name": "owner",
                    "type": "address"
                },
                {
                    "internalType": "address",
                    "name": "spender",
                    "type": "address"
                }
            ],
            "name": "allowance",
            "outputs": [
                {
                    "internalType": "uint256",
                    "name": "",
                    "type": "uint256"
                }
            ],
            "stateMutability": "view",
            "type": "function"
        },
        {
            "inputs": [
                {
                    "internalType": "address",
                    "name": "spender",
                    "type": "address"
                },
                {
                    "internalType": "uint256",
                    "name": "value",
                    "type": "uint256"
                }
            ],
            "name": "approve",
            "outputs": [
                {
                    "internalType": "bool",
                    "name": "",
                    "type": "bool"
                }
            ],
            "stateMutability": "nonpayable",
            "type": "function"
        },
        {
            "inputs": [
                {
                    "internalType": "address",
                    "name": "account",
                    "type": "address"
                }
            ],
            "name": "balanceOf",
            "outputs": [
                {
                    "internalType": "uint256",
                    "name": "",
                    "type": "uint256"
                }
            ],
            "stateMutability": "view",
            "type": "function"
        },
        {
            "inputs": [
                {
                    "internalType": "uint256",
                    "name": "value",
                    "type": "uint256"
                }
            ],
            "name": "burn",
            "outputs": [],
            "stateMutability": "nonpayable",
            "type": "function"
        },
        {
            "inputs": [
                {
                    "internalType": "address",
                    "name": "account",
                    "type": "address"
                },
                {
                    "internalType": "uint256",
                    "name": "value",
                    "type": "uint256"
                }
            ],
            "name": "burnFrom",
            "outputs": [],
            "stateMutability": "nonpayable",
            "type": "function"
        },
        {
            "inputs": [],
            "name": "decimals",
            "outputs": [
                {
                    "internalType": "uint8",
                    "name": "",
                    "type": "uint8"
                }
            ],
            "stateMutability": "view",
            "type": "function"
        },
        {
            "inputs": [],
            "name": "eip712Domain",
            "outputs": [
                {
                    "internalType": "bytes1",
                    "name": "fields",
                    "type": "bytes1"
                },
                {
                    "internalType": "string",
                    "name": "name",
                    "type": "string"
                },
                {
                    "internalType": "string",
                    "name": "version",
                    "type": "string"
                },
                {
                    "internalType": "uint256",
                    "name": "chainId",
                    "type": "uint256"
                },
                {
                    "internalType": "address",
                    "name": "verifyingContract",
                    "type": "address"
                },
                {
                    "internalType": "bytes32",
                    "name": "salt",
                    "type": "bytes32"
                },
                {
                    "internalType": "uint256[]",
                    "name": "extensions",
                    "type": "uint256[]"
                }
            ],
            "stateMutability": "view",
            "type": "function"
        },
        {
            "inputs": [
                {
                    "internalType": "address",
                    "name": "token",
                    "type": "address"
                },
                {
                    "internalType": "uint256",
                    "name": "value",
                    "type": "uint256"
                }
            ],
            "name": "flashFee",
            "outputs": [
                {
                    "internalType": "uint256",
                    "name": "",
                    "type": "uint256"
                }
            ],
            "stateMutability": "view",
            "type": "function"
        },
        {
            "inputs": [
                {
                    "internalType": "contract IERC3156FlashBorrower",
                    "name": "receiver",
                    "type": "address"
                },
                {
                    "internalType": "address",
                    "name": "token",
                    "type": "address"
                },
                {
                    "internalType": "uint256",
                    "name": "value",
                    "type": "uint256"
                },
                {
                    "internalType": "bytes",
                    "name": "data",
                    "type": "bytes"
                }
            ],
            "name": "flashLoan",
            "outputs": [
                {
                    "internalType": "bool",
                    "name": "",
                    "type": "bool"
                }
            ],
            "stateMutability": "nonpayable",
            "type": "function"
        },
        {
            "inputs": [
                {
                    "internalType": "address",
                    "name": "token",
                    "type": "address"
                }
            ],
            "name": "maxFlashLoan",
            "outputs": [
                {
                    "internalType": "uint256",
                    "name": "",
                    "type": "uint256"
                }
            ],
            "stateMutability": "view",
            "type": "function"
        },
        {
            "inputs": [
                {
                    "internalType": "address",
                    "name": "to",
                    "type": "address"
                },
                {
                    "internalType": "uint256",
                    "name": "amount",
                    "type": "uint256"
                }
            ],
            "name": "mint",
            "outputs": [],
            "stateMutability": "nonpayable",
            "type": "function"
        },
        {
            "inputs": [],
            "name": "name",
            "outputs": [
                {
                    "internalType": "string",
                    "name": "",
                    "type": "string"
                }
            ],
            "stateMutability": "view",
            "type": "function"
        },
        {
            "inputs": [
                {
                    "internalType": "address",
                    "name": "owner",
                    "type": "address"
                }
            ],
            "name": "nonces",
            "outputs": [
                {
                    "internalType": "uint256",
                    "name": "",
                    "type": "uint256"
                }
            ],
            "stateMutability": "view",
            "type": "function"
        },
        {
            "inputs": [],
            "name": "owner",
            "outputs": [
                {
                    "internalType": "address",
                    "name": "",
                    "type": "address"
                }
            ],
            "stateMutability": "view",
            "type": "function"
        },
        {
            "inputs": [],
            "name": "pause",
            "outputs": [],
            "stateMutability": "nonpayable",
            "type": "function"
        },
        {
            "inputs": [],
            "name": "paused",
            "outputs": [
                {
                    "internalType": "bool",
                    "name": "",
                    "type": "bool"
                }
            ],
            "stateMutability": "view",
            "type": "function"
        },
        {
            "inputs": [
                {
                    "internalType": "address",
                    "name": "owner",
                    "type": "address"
                },
                {
                    "internalType": "address",
                    "name": "spender",
                    "type": "address"
                },
                {
                    "internalType": "uint256",
                    "name": "value",
                    "type": "uint256"
                },
                {
                    "internalType": "uint256",
                    "name": "deadline",
                    "type": "uint256"
                },
                {
                    "internalType": "uint8",
                    "name": "v",
                    "type": "uint8"
                },
                {
                    "internalType": "bytes32",
                    "name": "r",
                    "type": "bytes32"
                },
                {
                    "internalType": "bytes32",
                    "name": "s",
                    "type": "bytes32"
                }
            ],
            "name": "permit",
            "outputs": [],
            "stateMutability": "nonpayable",
            "type": "function"
        },
        {
            "inputs": [],
            "name": "renounceOwnership",
            "outputs": [],
            "stateMutability": "nonpayable",
            "type": "function"
        },
        {
            "inputs": [],
            "name": "symbol",
            "outputs": [
                {
                    "internalType": "string",
                    "name": "",
                    "type": "string"
                }
            ],
            "stateMutability": "view",
            "type": "function"
        },
        {
            "inputs": [],
            "name": "totalSupply",
            "outputs": [
                {
                    "internalType": "uint256",
                    "name": "",
                    "type": "uint256"
                }
            ],
            "stateMutability": "view",
            "type": "function"
        },
        {
            "inputs": [
                {
                    "internalType": "address",
                    "name": "to",
                    "type": "address"
                },
                {
                    "internalType": "uint256",
                    "name": "value",
                    "type": "uint256"
                }
            ],
            "name": "transfer",
            "outputs": [
                {
                    "internalType": "bool",
                    "name": "",
                    "type": "bool"
                }
            ],
            "stateMutability": "nonpayable",
            "type": "function"
        },
        {
            "inputs": [
                {
                    "internalType": "address",
                    "name": "from",
                    "type": "address"
                },
                {
                    "internalType": "address",
                    "name": "to",
                    "type": "address"
                },
                {
                    "internalType": "uint256",
                    "name": "value",
                    "type": "uint256"
                }
            ],
            "name": "transferFrom",
            "outputs": [
                {
                    "internalType": "bool",
                    "name": "",
                    "type": "bool"
                }
            ],
            "stateMutability": "nonpayable",
            "type": "function"
        },
        {
            "inputs": [
                {
                    "internalType": "address",
                    "name": "newOwner",
                    "type": "address"
                }
            ],
            "name": "transferOwnership",
            "outputs": [],
            "stateMutability": "nonpayable",
            "type": "function"
        },
        {
            "inputs": [],
            "name": "unpause",
            "outputs": [],
            "stateMutability": "nonpayable",
            "type": "function"
        }
    ],
    "bytecode": "61016060405234801562000011575f80fd5b5060405162001ac838038062001ac88339810160408190526200003491620002ac565b6040518060400160405280600b81526020016a14995919599a4815195cdd60aa1b81525080604051806040016040528060018152602001603160f81b815250836040518060400160405280600b81526020016a14995919599a4815195cdd60aa1b8152506040518060400160405280600381526020016229222360e91b8152508160039081620000c5919062000379565b506004620000d4828262000379565b50506005805460ff19169055506001600160a01b0381166200011057604051631e4fbdf760e01b81525f60048201526024015b60405180910390fd5b6200011b81620001d9565b506200012982600662000232565b610120526200013a81600762000232565b61014052815160208084019190912060e052815190820120610100524660a052620001c760e05161010051604080517f8b73c3c69bb8fe3d512ecc4cf759cc79239f7b179b0ffacaa9a75d522b39400f60208201529081019290925260608201524660808201523060a08201525f9060c00160405160208183030381529060405280519060200120905090565b60805250503060c05250620004b79050565b600580546001600160a01b03838116610100818102610100600160a81b031985161790945560405193909204169182907f8be0079c531659141344cd1fd0a4f28419497f9722a3daafe3b4186f6b6457e0905f90a35050565b5f602083511015620002515762000249836200026a565b905062000264565b816200025e848262000379565b5060ff90505b92915050565b5f80829050601f8151111562000297578260405163305a27a960e01b815260040162000107919062000445565b8051620002a48262000493565b179392505050565b5f60208284031215620002bd575f80fd5b81516001600160a01b0381168114620002d4575f80fd5b9392505050565b634e487b7160e01b5f52604160045260245ffd5b600181811c908216806200030457607f821691505b6020821081036200032357634e487b7160e01b5f52602260045260245ffd5b50919050565b601f8211156200037457805f5260205f20601f840160051c81016020851015620003505750805b601f840160051c820191505b8181101562000371575f81556001016200035c565b50505b505050565b81516001600160401b03811115620003955762000395620002db565b620003ad81620003a68454620002ef565b8462000329565b602080601f831160018114620003e3575f8415620003cb5750858301515b5f19600386901b1c1916600185901b1785556200043d565b5f85815260208120601f198616915b828110156200041357888601518255948401946001909101908401620003f2565b50858210156200043157878501515f19600388901b60f8161c191681555b505060018460011b0185555b505050505050565b5f602080835283518060208501525f5b81811015620004735785810183015185820160400152820162000455565b505f604082860101526040601f19601f8301168501019250505092915050565b8051602080830151919081101562000323575f1960209190910360031b1b16919050565b60805160a05160c05160e0516101005161012051610140516115bf620005095f395f610c5101525f610c2401525f610a4a01525f610a2201525f61097d01525f6109a701525f6109d101526115bf5ff3fe608060405234801561000f575f80fd5b506004361061016d575f3560e01c806370a08231116100d95780638da5cb5b11610093578063d505accf1161006e578063d505accf1461030c578063d9d98ce41461031f578063dd62ed3e14610332578063f2fde38b1461036a575f80fd5b80638da5cb5b146102c857806395d89b41146102f1578063a9059cbb146102f9575f80fd5b806370a082311461024f578063715018a61461027757806379cc67901461027f5780637ecebe00146102925780638456cb59146102a557806384b0196e146102ad575f80fd5b80633f4ba83a1161012a5780633f4ba83a146101ee57806340c10f19146101f857806342966c681461020b5780635c975abb1461021e5780635cffe9de14610229578063613255ab1461023c575f80fd5b806306fdde0314610171578063095ea7b31461018f57806318160ddd146101b257806323b872dd146101c4578063313ce567146101d75780633644e515146101e6575b5f80fd5b61017961037d565b60405161018691906111fc565b60405180910390f35b6101a261019d366004611222565b61040d565b6040519015158152602001610186565b6002545b604051908152602001610186565b6101a26101d236600461124c565b610426565b60405160128152602001610186565b6101b6610449565b6101f6610457565b005b6101f6610206366004611222565b610469565b6101f661021936600461128a565b61047f565b60055460ff166101a2565b6101a26102373660046112a1565b61048c565b6101b661024a366004611338565b610603565b6101b661025d366004611338565b6001600160a01b03165f9081526020819052604090205490565b6101f6610628565b6101f661028d366004611222565b610639565b6101b66102a0366004611338565b61064e565b6101f661066b565b6102b561067b565b6040516101869796959493929190611353565b60055461010090046001600160a01b03166040516001600160a01b039091168152602001610186565b6101796106bd565b6101a2610307366004611222565b6106cc565b6101f661031a3660046113ea565b6106d9565b6101b661032d366004611222565b61080f565b6101b661034036600461145b565b6001600160a01b039182165f90815260016020908152604080832093909416825291909152205490565b6101f6610378366004611338565b61084d565b60606003805461038c90611492565b80601f01602080910402602001604051908101604052809291908181526020018280546103b890611492565b80156104035780601f106103da57610100808354040283529160200191610403565b820191905f5260205f20905b8154815290600101906020018083116103e657829003601f168201915b5050505050905090565b5f3361041a818585610887565b60019150505b92915050565b5f33610433858285610899565b61043e858585610914565b506001949350505050565b5f610452610971565b905090565b61045f610a9a565b610467610acd565b565b610471610a9a565b61047b8282610b1f565b5050565b6104893382610b53565b50565b5f8061049786610603565b9050808511156104c25760405163fd9a760960e01b8152600481018290526024015b60405180910390fd5b5f6104cd878761080f565b90506104d98887610b1f565b6040516323e30c8b60e01b81527f439148f0bbc682ca079e46d6e2c2f0c1e3b820f1a291b069d8882abf8cf18dd9906001600160a01b038a16906323e30c8b906105319033908c908c9088908d908d906004016114ca565b6020604051808303815f875af115801561054d573d5f803e3d5ffd5b505050506040513d601f19601f820116820180604052508101906105719190611524565b146105995760405162678c5b60e81b81526001600160a01b03891660048201526024016104b9565b5f6105ae89306105a9858b61154f565b610899565b8115806105c257506001600160a01b038116155b156105df576105da896105d5848a61154f565b610b53565b6105f4565b6105e98988610b53565b6105f4898284610914565b50600198975050505050505050565b5f6001600160a01b038216301461061a575f610420565b600254610420905f19611562565b610630610a9a565b6104675f610b87565b610644823383610899565b61047b8282610b53565b6001600160a01b0381165f90815260086020526040812054610420565b610673610a9a565b610467610be0565b5f6060805f805f606061068c610c1d565b610694610c4a565b604080515f80825260208201909252600f60f81b9b939a50919850469750309650945092509050565b60606004805461038c90611492565b5f3361041a818585610914565b834211156106fd5760405163313c898160e11b8152600481018590526024016104b9565b5f7f6e71edae12b1b97f4d1f60370fef10105fa2faae0126114a169c64845d6126c98888886107488c6001600160a01b03165f90815260086020526040902080546001810190915590565b6040805160208101969096526001600160a01b0394851690860152929091166060840152608083015260a082015260c0810186905260e0016040516020818303038152906040528051906020012090505f6107a282610c77565b90505f6107b182878787610ca3565b9050896001600160a01b0316816001600160a01b0316146107f8576040516325c0072360e11b81526001600160a01b0380831660048301528b1660248201526044016104b9565b6108038a8a8a610887565b50505050505050505050565b5f6001600160a01b038316301461084457604051635ad3edc960e11b81526001600160a01b03841660048201526024016104b9565b5f5b9392505050565b610855610a9a565b6001600160a01b03811661087e57604051631e4fbdf760e01b81525f60048201526024016104b9565b61048981610b87565b6108948383836001610ccf565b505050565b6001600160a01b038381165f908152600160209081526040808320938616835292905220545f19811461090e578181101561090057604051637dc7a0d960e11b81526001600160a01b038416600482015260248101829052604481018390526064016104b9565b61090e84848484035f610ccf565b50505050565b6001600160a01b03831661093d57604051634b637e8f60e11b81525f60048201526024016104b9565b6001600160a01b0382166109665760405163ec442f0560e01b81525f60048201526024016104b9565b610894838383610da1565b5f306001600160a01b037f0000000000000000000000000000000000000000000000000000000000000000161480156109c957507f000000000000000000000000000000000000000000000000000000000000000046145b156109f357507f000000000000000000000000000000000000000000000000000000000000000090565b610452604080517f8b73c3c69bb8fe3d512ecc4cf759cc79239f7b179b0ffacaa9a75d522b39400f60208201527f0000000000000000000000000000000000000000000000000000000000000000918101919091527f000000000000000000000000000000000000000000000000000000000000000060608201524660808201523060a08201525f9060c00160405160208183030381529060405280519060200120905090565b6005546001600160a01b036101009091041633146104675760405163118cdaa760e01b81523360048201526024016104b9565b610ad5610dac565b6005805460ff191690557f5db9ee0a495bf2e6ff9c91a7834c1ba4fdd244a5e8aa4e537bd38aeae4b073aa335b6040516001600160a01b03909116815260200160405180910390a1565b6001600160a01b038216610b485760405163ec442f0560e01b81525f60048201526024016104b9565b61047b5f8383610da1565b6001600160a01b038216610b7c57604051634b637e8f60e11b81525f60048201526024016104b9565b61047b825f83610da1565b600580546001600160a01b03838116610100818102610100600160a81b031985161790945560405193909204169182907f8be0079c531659141344cd1fd0a4f28419497f9722a3daafe3b4186f6b6457e0905f90a35050565b610be8610dcf565b6005805460ff191660011790557f62e78cea01bee320cd4e420270b5ea74000d11b0c9f74754ebdbfc544b05a258610b023390565b60606104527f00000000000000000000000000000000000000000000000000000000000000006006610df3565b60606104527f00000000000000000000000000000000000000000000000000000000000000006007610df3565b5f610420610c83610971565b8360405161190160f01b8152600281019290925260228201526042902090565b5f805f80610cb388888888610e9c565b925092509250610cc38282610f64565b50909695505050505050565b6001600160a01b038416610cf85760405163e602df0560e01b81525f60048201526024016104b9565b6001600160a01b038316610d2157604051634a1406b160e11b81525f60048201526024016104b9565b6001600160a01b038085165f908152600160209081526040808320938716835292905220829055801561090e57826001600160a01b0316846001600160a01b03167f8c5be1e5ebec7d5bd14f71427d1e84f3dd0314c0f7b2291e5b200ac8c7c3b92584604051610d9391815260200190565b60405180910390a350505050565b61089483838361101c565b60055460ff1661046757604051638dfc202b60e01b815260040160405180910390fd5b60055460ff16156104675760405163d93c066560e01b815260040160405180910390fd5b606060ff8314610e0d57610e068361102f565b9050610420565b818054610e1990611492565b80601f0160208091040260200160405190810160405280929190818152602001828054610e4590611492565b8015610e905780601f10610e6757610100808354040283529160200191610e90565b820191905f5260205f20905b815481529060010190602001808311610e7357829003601f168201915b50505050509050610420565b5f80807f7fffffffffffffffffffffffffffffff5d576e7357a4501ddfe92f46681b20a0841115610ed557505f91506003905082610f5a565b604080515f808252602082018084528a905260ff891692820192909252606081018790526080810186905260019060a0016020604051602081039080840390855afa158015610f26573d5f803e3d5ffd5b5050604051601f1901519150506001600160a01b038116610f5157505f925060019150829050610f5a565b92505f91508190505b9450945094915050565b5f826003811115610f7757610f77611575565b03610f80575050565b6001826003811115610f9457610f94611575565b03610fb25760405163f645eedf60e01b815260040160405180910390fd5b6002826003811115610fc657610fc6611575565b03610fe75760405163fce698f760e01b8152600481018290526024016104b9565b6003826003811115610ffb57610ffb611575565b0361047b576040516335e2f38360e21b8152600481018290526024016104b9565b611024610dcf565b61089483838361106c565b60605f61103b83611192565b6040805160208082528183019092529192505f91906020820181803683375050509182525060208101929092525090565b6001600160a01b038316611096578060025f82825461108b919061154f565b909155506111069050565b6001600160a01b0383165f90815260208190526040902054818110156110e85760405163391434e360e21b81526001600160a01b038516600482015260248101829052604481018390526064016104b9565b6001600160a01b0384165f9081526020819052604090209082900390555b6001600160a01b03821661112257600280548290039055611140565b6001600160a01b0382165f9081526020819052604090208054820190555b816001600160a01b0316836001600160a01b03167fddf252ad1be2c89b69c2b068fc378daa952ba7f163c4a11628f55a4df523b3ef8360405161118591815260200190565b60405180910390a3505050565b5f60ff8216601f81111561042057604051632cd44ac360e21b815260040160405180910390fd5b5f81518084525f5b818110156111dd576020818501810151868301820152016111c1565b505f602082860101526020601f19601f83011685010191505092915050565b602081525f61084660208301846111b9565b6001600160a01b0381168114610489575f80fd5b5f8060408385031215611233575f80fd5b823561123e8161120e565b946020939093013593505050565b5f805f6060848603121561125e575f80fd5b83356112698161120e565b925060208401356112798161120e565b929592945050506040919091013590565b5f6020828403121561129a575f80fd5b5035919050565b5f805f805f608086880312156112b5575f80fd5b85356112c08161120e565b945060208601356112d08161120e565b935060408601359250606086013567ffffffffffffffff808211156112f3575f80fd5b818801915088601f830112611306575f80fd5b813581811115611314575f80fd5b896020828501011115611325575f80fd5b9699959850939650602001949392505050565b5f60208284031215611348575f80fd5b81356108468161120e565b60ff60f81b881681525f602060e0602084015261137360e084018a6111b9565b8381036040850152611385818a6111b9565b606085018990526001600160a01b038816608086015260a0850187905284810360c0860152855180825260208088019350909101905f5b818110156113d8578351835292840192918401916001016113bc565b50909c9b505050505050505050505050565b5f805f805f805f60e0888a031215611400575f80fd5b873561140b8161120e565b9650602088013561141b8161120e565b95506040880135945060608801359350608088013560ff8116811461143e575f80fd5b9699959850939692959460a0840135945060c09093013592915050565b5f806040838503121561146c575f80fd5b82356114778161120e565b915060208301356114878161120e565b809150509250929050565b600181811c908216806114a657607f821691505b6020821081036114c457634e487b7160e01b5f52602260045260245ffd5b50919050565b6001600160a01b03878116825286166020820152604081018590526060810184905260a06080820181905281018290525f828460c08401375f60c0848401015260c0601f19601f8501168301019050979650505050505050565b5f60208284031215611534575f80fd5b5051919050565b634e487b7160e01b5f52601160045260245ffd5b808201808211156104205761042061153b565b818103818111156104205761042061153b565b634e487b7160e01b5f52602160045260245ffdfea2646970667358221220849b9d5cff2e16aa489938474672426e02b01ff113dafe1995b55e3ca4ce606164736f6c63430008180033",
    "sourcePath": "/home/praetorp/Repos/Polkadot/redefi-infra/tests/sol/ERC20.sol",
    "compiler": {
        "name": "solc",
        "version": "0.8.24+commit.e11b9ed9"
    },
    "functionHashes": {
        "DOMAIN_SEPARATOR()": "3644e515",
        "allowance(address,address)": "dd62ed3e",
        "approve(address,uint256)": "095ea7b3",
        "balanceOf(address)": "70a08231",
        "burn(uint256)": "42966c68",
        "burnFrom(address,uint256)": "79cc6790",
        "decimals()": "313ce567",
        "eip712Domain()": "84b0196e",
        "flashFee(address,uint256)": "d9d98ce4",
        "flashLoan(address,address,uint256,bytes)": "5cffe9de",
        "maxFlashLoan(address)": "613255ab",
        "mint(address,uint256)": "40c10f19",
        "name()": "06fdde03",
        "nonces(address)": "7ecebe00",
        "owner()": "8da5cb5b",
        "pause()": "8456cb59",
        "paused()": "5c975abb",
        "permit(address,address,uint256,uint256,uint8,bytes32,bytes32)": "d505accf",
        "renounceOwnership()": "715018a6",
        "symbol()": "95d89b41",
        "totalSupply()": "18160ddd",
        "transfer(address,uint256)": "a9059cbb",
        "transferFrom(address,address,uint256)": "23b872dd",
        "transferOwnership(address)": "f2fde38b",
        "unpause()": "3f4ba83a"
    },
    "gasEstimates": {
        "creation": {
            "codeDepositCost": "1113400",
            "executionCost": "infinite",
            "totalCost": "infinite"
        },
        "external": {
            "DOMAIN_SEPARATOR()": "infinite",
            "allowance(address,address)": "infinite",
            "approve(address,uint256)": "24752",
            "balanceOf(address)": "2554",
            "burn(uint256)": "infinite",
            "burnFrom(address,uint256)": "infinite",
            "decimals()": "288",
            "eip712Domain()": "infinite",
            "flashFee(address,uint256)": "512",
            "flashLoan(address,address,uint256,bytes)": "infinite",
            "maxFlashLoan(address)": "infinite",
            "mint(address,uint256)": "infinite",
            "name()": "infinite",
            "nonces(address)": "2651",
            "owner()": "2374",
            "pause()": "infinite",
            "paused()": "2392",
            "permit(address,address,uint256,uint256,uint8,bytes32,bytes32)": "infinite",
            "renounceOwnership()": "infinite",
            "symbol()": "infinite",
            "totalSupply()": "2348",
            "transfer(address,uint256)": "infinite",
            "transferFrom(address,address,uint256)": "infinite",
            "transferOwnership(address)": "infinite",
            "unpause()": "infinite"
        },
        "internal": {
            "_update(address,address,uint256)": "infinite"
        }
    }
}